{
  "_format": "hh-sol-artifact-1",
  "contractName": "WikiPay",
  "sourceName": "contracts/WikiPay.sol",
  "abi": [
    {
      "anonymous": false,
      "inputs": [
        {
          "indexed": true,
          "internalType": "uint256",
          "name": "articleId",
          "type": "uint256"
        },
        {
          "indexed": true,
          "internalType": "address",
          "name": "creator",
          "type": "address"
        },
        {
          "indexed": false,
          "internalType": "string",
          "name": "ipfsHash",
          "type": "string"
        },
        {
          "indexed": false,
          "internalType": "uint256",
          "name": "price",
          "type": "uint256"
        },
        {
          "indexed": false,
          "internalType": "uint256",
          "name": "timestamp",
          "type": "uint256"
        }
      ],
      "name": "ArticlePublished",
      "type": "event"
    },
    {
      "anonymous": false,
      "inputs": [
        {
          "indexed": true,
          "internalType": "uint256",
          "name": "articleId",
          "type": "uint256"
        },
        {
          "indexed": true,
          "internalType": "address",
          "name": "reader",
          "type": "address"
        },
        {
          "indexed": false,
          "internalType": "uint256",
          "name": "price",
          "type": "uint256"
        },
        {
          "indexed": false,
          "internalType": "uint256",
          "name": "timestamp",
          "type": "uint256"
        }
      ],
      "name": "ArticleUnlocked",
      "type": "event"
    },
    {
      "anonymous": false,
      "inputs": [
        {
          "indexed": true,
          "internalType": "uint256",
          "name": "articleId",
          "type": "uint256"
        },
        {
          "indexed": true,
          "internalType": "bytes32",
          "name": "nullifier",
          "type": "bytes32"
        },
        {
          "indexed": false,
          "internalType": "uint256",
          "name": "price",
          "type": "uint256"
        },
        {
          "indexed": false,
          "internalType": "uint256",
          "name": "timestamp",
          "type": "uint256"
        }
      ],
      "name": "ArticleUnlockedAnonymous",
      "type": "event"
    },
    {
      "inputs": [
        {
          "internalType": "uint256",
          "name": "",
          "type": "uint256"
        }
      ],
      "name": "articles",
      "outputs": [
        {
          "internalType": "string",
          "name": "ipfsHash",
          "type": "string"
        },
        {
          "internalType": "string",
          "name": "preview",
          "type": "string"
        },
        {
          "internalType": "uint256",
          "name": "price",
          "type": "uint256"
        },
        {
          "internalType": "address",
          "name": "creator",
          "type": "address"
        },
        {
          "internalType": "uint256",
          "name": "unlocks",
          "type": "uint256"
        },
        {
          "internalType": "uint256",
          "name": "timestamp",
          "type": "uint256"
        }
      ],
      "stateMutability": "view",
      "type": "function"
    },
    {
      "inputs": [
        {
          "internalType": "address",
          "name": "",
          "type": "address"
        }
      ],
      "name": "creatorEarnings",
      "outputs": [
        {
          "internalType": "uint256",
          "name": "",
          "type": "uint256"
        }
      ],
      "stateMutability": "view",
      "type": "function"
    },
    {
      "inputs": [
        {
          "internalType": "uint256",
          "name": "articleId",
          "type": "uint256"
        }
      ],
      "name": "getArticle",
      "outputs": [
        {
          "components": [
            {
              "internalType": "string",
              "name": "ipfsHash",
              "type": "string"
            },
            {
              "internalType": "string",
              "name": "preview",
              "type": "string"
            },
            {
              "internalType": "uint256",
              "name": "price",
              "type": "uint256"
            },
            {
              "internalType": "address",
              "name": "creator",
              "type": "address"
            },
            {
              "internalType": "uint256",
              "name": "unlocks",
              "type": "uint256"
            },
            {
              "internalType": "uint256",
              "name": "timestamp",
              "type": "uint256"
            }
          ],
          "internalType": "struct WikiPay.Article",
          "name": "",
          "type": "tuple"
        }
      ],
      "stateMutability": "view",
      "type": "function"
    },
    {
      "inputs": [
        {
          "internalType": "address",
          "name": "creator",
          "type": "address"
        }
      ],
      "name": "getCreatorEarnings",
      "outputs": [
        {
          "internalType": "uint256",
          "name": "",
          "type": "uint256"
        }
      ],
      "stateMutability": "view",
      "type": "function"
    },
    {
      "inputs": [
        {
          "internalType": "uint256",
          "name": "articleId",
          "type": "uint256"
        }
      ],
      "name": "getIpfsHash",
      "outputs": [
        {
          "internalType": "string",
          "name": "",
          "type": "string"
        }
      ],
      "stateMutability": "view",
      "type": "function"
    },
    {
      "inputs": [
        {
          "internalType": "uint256",
          "name": "articleId",
          "type": "uint256"
        }
      ],
      "name": "getPreview",
      "outputs": [
        {
          "internalType": "string",
          "name": "",
          "type": "string"
        }
      ],
      "stateMutability": "view",
      "type": "function"
    },
    {
      "inputs": [
        {
          "internalType": "uint256",
          "name": "articleId",
          "type": "uint256"
        }
      ],
      "name": "getPrice",
      "outputs": [
        {
          "internalType": "uint256",
          "name": "",
          "type": "uint256"
        }
      ],
      "stateMutability": "view",
      "type": "function"
    },
    {
      "inputs": [],
      "name": "getTotalArticles",
      "outputs": [
        {
          "internalType": "uint256",
          "name": "",
          "type": "uint256"
        }
      ],
      "stateMutability": "view",
      "type": "function"
    },
    {
      "inputs": [
        {
          "internalType": "bytes32",
          "name": "nullifier",
          "type": "bytes32"
        }
      ],
      "name": "isNullifierUsed",
      "outputs": [
        {
          "internalType": "bool",
          "name": "",
          "type": "bool"
        }
      ],
      "stateMutability": "view",
      "type": "function"
    },
    {
      "inputs": [
        {
          "internalType": "bytes32",
          "name": "",
          "type": "bytes32"
        }
      ],
      "name": "nullifiersUsed",
      "outputs": [
        {
          "internalType": "bool",
          "name": "",
          "type": "bool"
        }
      ],
      "stateMutability": "view",
      "type": "function"
    },
    {
      "inputs": [
        {
          "internalType": "string",
          "name": "ipfsHash",
          "type": "string"
        },
        {
          "internalType": "string",
          "name": "preview",
          "type": "string"
        },
        {
          "internalType": "uint256",
          "name": "price",
          "type": "uint256"
        }
      ],
      "name": "publishArticle",
      "outputs": [
        {
          "internalType": "uint256",
          "name": "",
          "type": "uint256"
        }
      ],
      "stateMutability": "nonpayable",
      "type": "function"
    },
    {
      "inputs": [],
      "name": "totalArticles",
      "outputs": [
        {
          "internalType": "uint256",
          "name": "",
          "type": "uint256"
        }
      ],
      "stateMutability": "view",
      "type": "function"
    },
    {
      "inputs": [
        {
          "internalType": "uint256",
          "name": "articleId",
          "type": "uint256"
        }
      ],
      "name": "unlockArticle",
      "outputs": [],
      "stateMutability": "payable",
      "type": "function"
    },
    {
      "inputs": [
        {
          "internalType": "uint256",
          "name": "articleId",
          "type": "uint256"
        },
        {
          "internalType": "bytes32",
          "name": "nullifier",
          "type": "bytes32"
        },
        {
          "internalType": "bytes32",
          "name": "proof",
          "type": "bytes32"
        }
      ],
      "name": "unlockArticleAnonymous",
      "outputs": [
        {
          "internalType": "bool",
          "name": "",
          "type": "bool"
        }
      ],
      "stateMutability": "payable",
      "type": "function"
    },
    {
      "inputs": [],
      "name": "withdrawEarnings",
      "outputs": [],
      "stateMutability": "nonpayable",
      "type": "function"
    }
  ],
  "bytecode": "0x608060405234801561001057600080fd5b5061122d806100206000396000f3fe6080604052600436106100e85760003560e01c8063afe545e51161008a578063d450fbc911610059578063d450fbc914610284578063e7572230146102a4578063edcfafe6146102c4578063fa3c30a8146102f657600080fd5b8063afe545e51461020c578063b73c6ce91461022c578063bd85d86714610241578063bef2e1ee1461026e57600080fd5b806322dc7b4c116100c657806322dc7b4c146101495780634b27cd6f14610179578063804396af146101a95780638d617c1c146101df57600080fd5b80630ebf1d3d146100ed5780631037c31a146101115780631e536cf414610126575b600080fd5b3480156100f957600080fd5b506003545b6040519081526020015b60405180910390f35b61012461011f366004610d8b565b610323565b005b610139610134366004610da4565b61042e565b6040519015158152602001610108565b34801561015557600080fd5b50610139610164366004610d8b565b60009081526002602052604090205460ff1690565b34801561018557600080fd5b50610139610194366004610d8b565b60026020526000908152604090205460ff1681565b3480156101b557600080fd5b506100fe6101c4366004610dd0565b6001600160a01b031660009081526001602052604090205490565b3480156101eb57600080fd5b506101ff6101fa366004610d8b565b6105e6565b6040516101089190610e46565b34801561021857600080fd5b506100fe610227366004610ea2565b6106aa565b34801561023857600080fd5b506101246108f6565b34801561024d57600080fd5b5061026161025c366004610d8b565b6109f0565b6040516101089190610f16565b34801561027a57600080fd5b506100fe60035481565b34801561029057600080fd5b506101ff61029f366004610d8b565b610bc7565b3480156102b057600080fd5b506100fe6102bf366004610d8b565b610c03565b3480156102d057600080fd5b506102e46102df366004610d8b565b610c3c565b60405161010896959493929190610f8c565b34801561030257600080fd5b506100fe610311366004610dd0565b60016020526000908152604090205481565b600354811061034d5760405162461bcd60e51b815260040161034490610fe0565b60405180910390fd5b600081815260208190526040902060028101543410156103a65760405162461bcd60e51b8152602060048201526014602482015273125b9cdd59999a58da595b9d081c185e5b595b9d60621b6044820152606401610344565b60038101546001600160a01b0316600090815260016020526040812080543492906103d2908490611026565b90915550506004810180549060006103e98361103f565b909155505060408051348152426020820152339184917f7d10156e5872f1634d09523082fd882e15c3681f5a4d2c49a83a399102a505ff910160405180910390a35050565b600060035484106104515760405162461bcd60e51b815260040161034490610fe0565b60008381526002602052604090205460ff16156104a95760405162461bcd60e51b8152602060048201526016602482015275139d5b1b1a599a595c88185b1c9958591e481d5cd95960521b6044820152606401610344565b816104e65760405162461bcd60e51b815260206004820152600d60248201526c24b73b30b634b210383937b7b360991b6044820152606401610344565b6000848152602081905260409020600281015434101561053f5760405162461bcd60e51b8152602060048201526014602482015273125b9cdd59999a58da595b9d081c185e5b595b9d60621b6044820152606401610344565b6000848152600260209081526040808320805460ff1916600190811790915560038501546001600160a01b0316845290915281208054349290610583908490611026565b909155505060048101805490600061059a8361103f565b909155505060408051348152426020820152859187917f416529af4438d20ddbcccd456da09696a7989cda28a00b80aede6f6d4b380226910160405180910390a3506001949350505050565b606060035482106106095760405162461bcd60e51b815260040161034490610fe0565b6000828152602081905260409020600101805461062590611058565b80601f016020809104026020016040519081016040528092919081815260200182805461065190611058565b801561069e5780601f106106735761010080835404028352916020019161069e565b820191906000526020600020905b81548152906001019060200180831161068157829003601f168201915b50505050509050919050565b6000846106ee5760405162461bcd60e51b815260206004820152601260248201527112541194c81a185cda081c995c5d5a5c995960721b6044820152606401610344565b8261072e5760405162461bcd60e51b815260206004820152601060248201526f141c995d9a595dc81c995c5d5a5c995960821b6044820152606401610344565b6000821161077e5760405162461bcd60e51b815260206004820152601c60248201527f5072696365206d7573742062652067726561746572207468616e2030000000006044820152606401610344565b6003546040805160e06020601f8a01819004028201810190925260c0810188815290918291908a908a9081908501838280828437600092019190915250505090825250604080516020601f89018190048102820181019092528781529181019190889088908190840183828082843760009201829052509385525050506020808301879052336040808501919091526060840183905242608090940193909352848252819052208151819061083390826110f7565b506020820151600182019061084890826110f7565b50604082015160028201556060820151600380830180546001600160a01b0319166001600160a01b03909316929092179091556080830151600483015560a090920151600590910155805490600061089f8361103f565b9190505550336001600160a01b0316817f523d5ddc8dfee227e7521c33683f418cd9b5770178a996de6111e4dd72945b22898987426040516108e494939291906111b7565b60405180910390a39695505050505050565b33600090815260016020526040902054806109535760405162461bcd60e51b815260206004820152601760248201527f4e6f206561726e696e677320746f2077697468647261770000000000000000006044820152606401610344565b336000818152600160205260408082208290555190919083908381818185875af1925050503d80600081146109a4576040519150601f19603f3d011682016040523d82523d6000602084013e6109a9565b606091505b50509050806109ec5760405162461bcd60e51b815260206004820152600f60248201526e151c985b9cd9995c8819985a5b1959608a1b6044820152606401610344565b5050565b610a326040518060c0016040528060608152602001606081526020016000815260200160006001600160a01b0316815260200160008152602001600081525090565b6003548210610a535760405162461bcd60e51b815260040161034490610fe0565b60008281526020819052604090819020815160c08101909252805482908290610a7b90611058565b80601f0160208091040260200160405190810160405280929190818152602001828054610aa790611058565b8015610af45780601f10610ac957610100808354040283529160200191610af4565b820191906000526020600020905b815481529060010190602001808311610ad757829003601f168201915b50505050508152602001600182018054610b0d90611058565b80601f0160208091040260200160405190810160405280929190818152602001828054610b3990611058565b8015610b865780601f10610b5b57610100808354040283529160200191610b86565b820191906000526020600020905b815481529060010190602001808311610b6957829003601f168201915b50505091835250506002820154602082015260038201546001600160a01b031660408201526004820154606082015260059091015460809091015292915050565b60606003548210610bea5760405162461bcd60e51b815260040161034490610fe0565b6000828152602081905260409020805461062590611058565b60006003548210610c265760405162461bcd60e51b815260040161034490610fe0565b5060009081526020819052604090206002015490565b600060208190529081526040902080548190610c5790611058565b80601f0160208091040260200160405190810160405280929190818152602001828054610c8390611058565b8015610cd05780601f10610ca557610100808354040283529160200191610cd0565b820191906000526020600020905b815481529060010190602001808311610cb357829003601f168201915b505050505090806001018054610ce590611058565b80601f0160208091040260200160405190810160405280929190818152602001828054610d1190611058565b8015610d5e5780601f10610d3357610100808354040283529160200191610d5e565b820191906000526020600020905b815481529060010190602001808311610d4157829003601f168201915b50505050600283015460038401546004850154600590950154939491936001600160a01b03909116925086565b600060208284031215610d9d57600080fd5b5035919050565b600080600060608486031215610db957600080fd5b505081359360208301359350604090920135919050565b600060208284031215610de257600080fd5b81356001600160a01b0381168114610df957600080fd5b9392505050565b6000815180845260005b81811015610e2657602081850181015186830182015201610e0a565b506000602082860101526020601f19601f83011685010191505092915050565b602081526000610df96020830184610e00565b60008083601f840112610e6b57600080fd5b50813567ffffffffffffffff811115610e8357600080fd5b602083019150836020828501011115610e9b57600080fd5b9250929050565b600080600080600060608688031215610eba57600080fd5b853567ffffffffffffffff80821115610ed257600080fd5b610ede89838a01610e59565b90975095506020880135915080821115610ef757600080fd5b50610f0488828901610e59565b96999598509660400135949350505050565b602081526000825160c06020840152610f3260e0840182610e00565b90506020840151601f19848303016040850152610f4f8282610e00565b9150506040840151606084015260018060a01b036060850151166080840152608084015160a084015260a084015160c08401528091505092915050565b60c081526000610f9f60c0830189610e00565b8281036020840152610fb18189610e00565b604084019790975250506001600160a01b03939093166060840152608083019190915260a09091015292915050565b602080825260169082015275105c9d1a58db1948191bd95cc81b9bdd08195e1a5cdd60521b604082015260600190565b634e487b7160e01b600052601160045260246000fd5b8082018082111561103957611039611010565b92915050565b60006001820161105157611051611010565b5060010190565b600181811c9082168061106c57607f821691505b60208210810361108c57634e487b7160e01b600052602260045260246000fd5b50919050565b634e487b7160e01b600052604160045260246000fd5b601f8211156110f257600081815260208120601f850160051c810160208610156110cf5750805b601f850160051c820191505b818110156110ee578281556001016110db565b5050505b505050565b815167ffffffffffffffff81111561111157611111611092565b6111258161111f8454611058565b846110a8565b602080601f83116001811461115a57600084156111425750858301515b600019600386901b1c1916600185901b1785556110ee565b600085815260208120601f198616915b828110156111895788860151825594840194600190910190840161116a565b50858210156111a75787850151600019600388901b60f8161c191681555b5050505050600190811b01905550565b606081528360608201528385608083013760006080858301015260006080601f19601f87011683010190508360208301528260408301529594505050505056fea26469706673582212200f92a33dd322411b6c00a8a306967d069d1195b1b348f3cbc881a460f4bf433264736f6c63430008140033",
  "linkReferences": {},
  "deployedLinkReferences": {}
}